{
  "_format": "hh-sol-artifact-1",
  "contractName": "PaperWalletGenerator",
  "sourceName": "contracts/PaperWalletGenerator.sol",
  "abi": [
    {
      "inputs": [],
      "name": "generateWallets",
      "outputs": [
        {
          "internalType": "bytes32[5]",
          "name": "",
          "type": "bytes32[5]"
        },
        {
          "internalType": "address[5]",
          "name": "",
          "type": "address[5]"
        }
      ],
      "stateMutability": "view",
      "type": "function"
    }
  ],
  "bytecode": "0x608060405234801561001057600080fd5b506104d3806100206000396000f3fe608060405234801561001057600080fd5b506004361061002b5760003560e01c806348ff122714610030575b600080fd5b61003861004f565b60405161004692919061031d565b60405180910390f35b610057610147565b61005f610169565b610067610147565b61006f610169565b60005b600581101561013a57334282604051602001610090939291906103ba565b604051602081830303815290604052805190602001208382600581106100b9576100b86103f7565b5b6020020181815250508281600581106100d5576100d46103f7565b5b602002015160601c8282600581106100f0576100ef6103f7565b5b602002019073ffffffffffffffffffffffffffffffffffffffff16908173ffffffffffffffffffffffffffffffffffffffff1681525050808061013290610455565b915050610072565b5081819350935050509091565b6040518060a00160405280600590602082028036833780820191505090505090565b6040518060a00160405280600590602082028036833780820191505090505090565b600060059050919050565b600081905092915050565b6000819050919050565b6000819050919050565b6101be816101ab565b82525050565b60006101d083836101b5565b60208301905092915050565b6000602082019050919050565b6101f28161018b565b6101fc8184610196565b9250610207826101a1565b8060005b8381101561023857815161021f87826101c4565b965061022a836101dc565b92505060018101905061020b565b505050505050565b600060059050919050565b600081905092915050565b6000819050919050565b600073ffffffffffffffffffffffffffffffffffffffff82169050919050565b600061028b82610260565b9050919050565b61029b81610280565b82525050565b60006102ad8383610292565b60208301905092915050565b6000602082019050919050565b6102cf81610240565b6102d9818461024b565b92506102e482610256565b8060005b838110156103155781516102fc87826102a1565b9650610307836102b9565b9250506001810190506102e8565b505050505050565b60006101408201905061033360008301856101e9565b61034060a08301846102c6565b9392505050565b60008160601b9050919050565b600061035f82610347565b9050919050565b600061037182610354565b9050919050565b61038961038482610280565b610366565b82525050565b6000819050919050565b6000819050919050565b6103b46103af8261038f565b610399565b82525050565b60006103c68286610378565b6014820191506103d682856103a3565b6020820191506103e682846103a3565b602082019150819050949350505050565b7f4e487b7100000000000000000000000000000000000000000000000000000000600052603260045260246000fd5b7f4e487b7100000000000000000000000000000000000000000000000000000000600052601160045260246000fd5b60006104608261038f565b91507fffffffffffffffffffffffffffffffffffffffffffffffffffffffffffffffff820361049257610491610426565b5b60018201905091905056fea2646970667358221220d60e945d75aea1cccddd43235ffd7905e408e13a042a212e33c33f2a62da7db364736f6c63430008120033",
  "linkReferences": {},
  "deployedLinkReferences": {}
}